{
  "contractName": "EVotingSystem",
  "abi": [
    {
      "inputs": [],
      "stateMutability": "nonpayable",
      "type": "constructor"
    },
    {
      "anonymous": false,
      "inputs": [
        {
          "indexed": false,
          "internalType": "uint256",
          "name": "candidateId",
          "type": "uint256"
        },
        {
          "indexed": false,
          "internalType": "string",
          "name": "name",
          "type": "string"
        }
      ],
      "name": "CandidateAdded",
      "type": "event"
    },
    {
      "anonymous": false,
      "inputs": [
        {
          "indexed": false,
          "internalType": "address",
          "name": "voter",
          "type": "address"
        },
        {
          "indexed": false,
          "internalType": "uint256",
          "name": "candidateId",
          "type": "uint256"
        }
      ],
      "name": "VoteCast",
      "type": "event"
    },
    {
      "anonymous": false,
      "inputs": [
        {
          "indexed": false,
          "internalType": "address",
          "name": "voterAddress",
          "type": "address"
        }
      ],
      "name": "VoterRegistered",
      "type": "event"
    },
    {
      "anonymous": false,
      "inputs": [
        {
          "indexed": false,
          "internalType": "uint256",
          "name": "endTime",
          "type": "uint256"
        },
        {
          "indexed": false,
          "internalType": "uint256",
          "name": "totalVotes",
          "type": "uint256"
        }
      ],
      "name": "VotingEnded",
      "type": "event"
    },
    {
      "anonymous": false,
      "inputs": [
        {
          "indexed": false,
          "internalType": "uint256",
          "name": "startTime",
          "type": "uint256"
        },
        {
          "indexed": false,
          "internalType": "uint256",
          "name": "endTime",
          "type": "uint256"
        }
      ],
      "name": "VotingStarted",
      "type": "event"
    },
    {
      "inputs": [],
      "name": "admin",
      "outputs": [
        {
          "internalType": "address",
          "name": "",
          "type": "address"
        }
      ],
      "stateMutability": "view",
      "type": "function",
      "constant": true
    },
    {
      "inputs": [],
      "name": "candidatesCount",
      "outputs": [
        {
          "internalType": "uint256",
          "name": "",
          "type": "uint256"
        }
      ],
      "stateMutability": "view",
      "type": "function",
      "constant": true
    },
    {
      "inputs": [],
      "name": "endTime",
      "outputs": [
        {
          "internalType": "uint256",
          "name": "",
          "type": "uint256"
        }
      ],
      "stateMutability": "view",
      "type": "function",
      "constant": true
    },
    {
      "inputs": [],
      "name": "startTime",
      "outputs": [
        {
          "internalType": "uint256",
          "name": "",
          "type": "uint256"
        }
      ],
      "stateMutability": "view",
      "type": "function",
      "constant": true
    },
    {
      "inputs": [],
      "name": "totalVotes",
      "outputs": [
        {
          "internalType": "uint256",
          "name": "",
          "type": "uint256"
        }
      ],
      "stateMutability": "view",
      "type": "function",
      "constant": true
    },
    {
      "inputs": [
        {
          "internalType": "address",
          "name": "",
          "type": "address"
        }
      ],
      "name": "voters",
      "outputs": [
        {
          "internalType": "bool",
          "name": "isRegistered",
          "type": "bool"
        },
        {
          "internalType": "bool",
          "name": "hasVoted",
          "type": "bool"
        },
        {
          "internalType": "uint256",
          "name": "votedCandidateId",
          "type": "uint256"
        }
      ],
      "stateMutability": "view",
      "type": "function",
      "constant": true
    },
    {
      "inputs": [],
      "name": "votingEnded",
      "outputs": [
        {
          "internalType": "bool",
          "name": "",
          "type": "bool"
        }
      ],
      "stateMutability": "view",
      "type": "function",
      "constant": true
    },
    {
      "inputs": [],
      "name": "votingStarted",
      "outputs": [
        {
          "internalType": "bool",
          "name": "",
          "type": "bool"
        }
      ],
      "stateMutability": "view",
      "type": "function",
      "constant": true
    },
    {
      "inputs": [
        {
          "internalType": "string",
          "name": "_name",
          "type": "string"
        },
        {
          "internalType": "string",
          "name": "_details",
          "type": "string"
        }
      ],
      "name": "addCandidate",
      "outputs": [],
      "stateMutability": "nonpayable",
      "type": "function"
    },
    {
      "inputs": [
        {
          "internalType": "address",
          "name": "_voter",
          "type": "address"
        }
      ],
      "name": "registerVoter",
      "outputs": [],
      "stateMutability": "nonpayable",
      "type": "function"
    },
    {
      "inputs": [
        {
          "internalType": "uint256",
          "name": "_durationInMinutes",
          "type": "uint256"
        }
      ],
      "name": "startVoting",
      "outputs": [],
      "stateMutability": "nonpayable",
      "type": "function"
    },
    {
      "inputs": [],
      "name": "endVoting",
      "outputs": [],
      "stateMutability": "nonpayable",
      "type": "function"
    },
    {
      "inputs": [
        {
          "internalType": "uint256",
          "name": "_candidateId",
          "type": "uint256"
        }
      ],
      "name": "vote",
      "outputs": [],
      "stateMutability": "nonpayable",
      "type": "function"
    },
    {
      "inputs": [
        {
          "internalType": "uint256",
          "name": "_candidateId",
          "type": "uint256"
        }
      ],
      "name": "getCandidate",
      "outputs": [
        {
          "internalType": "uint256",
          "name": "id",
          "type": "uint256"
        },
        {
          "internalType": "string",
          "name": "name",
          "type": "string"
        },
        {
          "internalType": "string",
          "name": "details",
          "type": "string"
        },
        {
          "internalType": "uint256",
          "name": "voteCount",
          "type": "uint256"
        }
      ],
      "stateMutability": "view",
      "type": "function",
      "constant": true
    },
    {
      "inputs": [],
      "name": "getAllCandidatesWithVotes",
      "outputs": [
        {
          "internalType": "uint256[]",
          "name": "ids",
          "type": "uint256[]"
        },
        {
          "internalType": "string[]",
          "name": "names",
          "type": "string[]"
        },
        {
          "internalType": "uint256[]",
          "name": "voteCounts",
          "type": "uint256[]"
        }
      ],
      "stateMutability": "view",
      "type": "function",
      "constant": true
    },
    {
      "inputs": [],
      "name": "getVotingStatus",
      "outputs": [
        {
          "internalType": "bool",
          "name": "isActive",
          "type": "bool"
        },
        {
          "internalType": "uint256",
          "name": "remainingTime",
          "type": "uint256"
        }
      ],
      "stateMutability": "view",
      "type": "function",
      "constant": true
    },
    {
      "inputs": [
        {
          "internalType": "address",
          "name": "_voter",
          "type": "address"
        }
      ],
      "name": "checkVoterStatus",
      "outputs": [
        {
          "internalType": "bool",
          "name": "isRegistered",
          "type": "bool"
        },
        {
          "internalType": "bool",
          "name": "hasVoted",
          "type": "bool"
        }
      ],
      "stateMutability": "view",
      "type": "function",
      "constant": true
    },
    {
      "inputs": [
        {
          "internalType": "address",
          "name": "_voter",
          "type": "address"
        }
      ],
      "name": "getVoterVote",
      "outputs": [
        {
          "internalType": "uint256",
          "name": "votedFor",
          "type": "uint256"
        }
      ],
      "stateMutability": "view",
      "type": "function",
      "constant": true
    }
  ],
  "bytecode": "0x608060405234801561001057600080fd5b50600080546001600160a01b0319163317815560018190556004805461ffff19169055600755611489806100456000396000f3fe608060405234801561001057600080fd5b50600436106101165760003560e01c80635141e520116100a25780639d5a0529116100715780639d5a052914610285578063a3ec138d14610297578063c3403ddf146102e8578063f6d42f15146102f0578063f851a4401461030757600080fd5b80635141e5201461022d578063581c281c1461024057806378e979251461025f57806383d948b71461026857600080fd5b80632d35a8a2116100e95780632d35a8a2146101d25780633197cbb6146101db57806335b8e820146101e457806338db6dd3146102075780633d2f5bda1461021a57600080fd5b80630121b93f1461011b5780630d15fd77146101305780630eaf4d9c1461014c57806326541b56146101bf575b600080fd5b61012e610129366004610f8d565b610332565b005b61013960075481565b6040519081526020015b60405180910390f35b6101a861015a366004610fa6565b6001600160a01b03166000908152600360209081526040918290208251606081018452815460ff80821615158084526101009092041615159382018490526001909201549301929092529091565b604080519215158352901515602083015201610143565b61012e6101cd366004611079565b61052a565b61013960015481565b61013960065481565b6101f76101f2366004610f8d565b61067a565b6040516101439493929190611123565b61012e610215366004610fa6565b610869565b61012e610228366004610f8d565b610993565b61013961023b366004610fa6565b610b19565b610248610c07565b604080519215158352602083019190915201610143565b61013960055481565b6004546102759060ff1681565b6040519015158152602001610143565b60045461027590610100900460ff1681565b6102cb6102a5366004610fa6565b6003602052600090815260409020805460019091015460ff808316926101009004169083565b604080519315158452911515602084015290820152606001610143565b61012e610c59565b6102f8610d39565b6040516101439392919061119b565b60005461031a906001600160a01b031681565b6040516001600160a01b039091168152602001610143565b60045460ff16801561034c5750600454610100900460ff16155b6103945760405162461bcd60e51b8152602060048201526014602482015273566f74696e67206973206e6f742061637469766560601b60448201526064015b60405180910390fd5b336000908152600360205260409020805460ff166103ee5760405162461bcd60e51b8152602060048201526017602482015276159bdd195c881a5cc81b9bdd081c9959da5cdd195c9959604a1b604482015260640161038b565b8054610100900460ff16156104455760405162461bcd60e51b815260206004820152601760248201527f566f7465722068617320616c726561647920766f746564000000000000000000604482015260640161038b565b60008281526002602052604090206004015460ff166104a15760405162461bcd60e51b815260206004820152601860248201527710d85b991a59185d1948191bd95cc81b9bdd08195e1a5cdd60421b604482015260640161038b565b805461ff0019166101001781556001810182905560008281526002602052604081206003018054916104d283611236565b9091555050600780549060006104e783611236565b909155505060408051338152602081018490527fa36cc2bebb74db33e9f88110a07ef56e1b31b24b4c4f51b54b1664266e29f45b91015b60405180910390a15050565b6000546001600160a01b031633146105545760405162461bcd60e51b815260040161038b9061124f565b60045460ff16156105a75760405162461bcd60e51b815260206004820152601a60248201527f566f74696e672068617320616c72656164792073746172746564000000000000604482015260640161038b565b600180549060006105b783611236565b90915550506040805160a0810182526001805480835260208084018781528486018790526000606086018190526080860185905292835260029091529390208251815592519192919082019061060d9082611319565b50604082015160028201906106229082611319565b50606082015160038201556080909101516004909101805460ff19169115159190911790556001546040517fe83b2a43e7e82d975c8a0a6d2f045153c869e111136a34d1889ab7b598e396a39161051e9185906113d9565b6000818152600260205260408120600401546060908190839060ff166106dd5760405162461bcd60e51b815260206004820152601860248201527710d85b991a59185d1948191bd95cc81b9bdd08195e1a5cdd60421b604482015260640161038b565b6000600260008781526020019081526020016000206040518060a00160405290816000820154815260200160018201805461071790611290565b80601f016020809104026020016040519081016040528092919081815260200182805461074390611290565b80156107905780601f1061076557610100808354040283529160200191610790565b820191906000526020600020905b81548152906001019060200180831161077357829003601f168201915b505050505081526020016002820180546107a990611290565b80601f01602080910402602001604051908101604052809291908181526020018280546107d590611290565b80156108225780601f106107f757610100808354040283529160200191610822565b820191906000526020600020905b81548152906001019060200180831161080557829003601f168201915b5050509183525050600382015460208083019190915260049092015460ff161515604091820152825191830151908301516060909301519199909850919650945092505050565b6000546001600160a01b031633146108935760405162461bcd60e51b815260040161038b9061124f565b6001600160a01b03811660009081526003602052604090205460ff16156108fc5760405162461bcd60e51b815260206004820152601b60248201527f566f74657220697320616c726561647920726567697374657265640000000000604482015260640161038b565b604080516060810182526001808252600060208084018281528486018381526001600160a01b038816808552600384529387902095518654925161ffff1990931690151561ff001916176101009215159290920291909117855551939092019290925591519081527fb6be2187d059cc2a55fe29e0e503b566e1e0f8c8780096e185429350acffd3dd91015b60405180910390a150565b6000546001600160a01b031633146109bd5760405162461bcd60e51b815260040161038b9061124f565b60045460ff1615610a105760405162461bcd60e51b815260206004820152601a60248201527f566f74696e672068617320616c72656164792073746172746564000000000000604482015260640161038b565b600060015411610a625760405162461bcd60e51b815260206004820152601760248201527f4e6f2063616e6469646174657320616464656420796574000000000000000000604482015260640161038b565b60008111610ab25760405162461bcd60e51b815260206004820152601f60248201527f4475726174696f6e206d7573742062652067726561746572207468616e203000604482015260640161038b565b6004805460ff1916600117905542600555610ace81603c6113fa565b600554610adb9190611417565b60068190556005546040517ff8c022056754dbacca05aff710dc315a2fa7699ae9309fda403cd1e55c11d40f92610988928252602082015260400190565b6001600160a01b03811660009081526003602052604081205460ff16610b7b5760405162461bcd60e51b8152602060048201526017602482015276159bdd195c881a5cc81b9bdd081c9959da5cdd195c9959604a1b604482015260640161038b565b6001600160a01b038216600090815260036020526040902054610100900460ff16610be85760405162461bcd60e51b815260206004820152601760248201527f566f74657220686173206e6f7420766f74656420796574000000000000000000604482015260640161038b565b506001600160a01b031660009081526003602052604090206001015490565b600454600090819060ff168015610c265750600454610100900460ff16155b8015610c33575060065442105b15610c5057600142600654610c48919061142a565b915091509091565b50600091829150565b6000546001600160a01b03163314610c835760405162461bcd60e51b815260040161038b9061124f565b60045460ff168015610c9d5750600454610100900460ff16155b610ce05760405162461bcd60e51b8152602060048201526014602482015273566f74696e67206973206e6f742061637469766560601b604482015260640161038b565b6004805461ff0019166101001790554260068190556007546040517f04e400203b6647e7ab88412380ee2430174c77bd98021012d3647eb3fa63f63f92610d2f92908252602082015260400190565b60405180910390a1565b6060806060600060015467ffffffffffffffff811115610d5b57610d5b610fd6565b604051908082528060200260200182016040528015610d84578160200160208202803683370190505b509050600060015467ffffffffffffffff811115610da457610da4610fd6565b604051908082528060200260200182016040528015610dd757816020015b6060815260200190600190039081610dc25790505b509050600060015467ffffffffffffffff811115610df757610df7610fd6565b604051908082528060200260200182016040528015610e20578160200160208202803683370190505b50905060015b6001548111610f805760008181526002602052604090205484610e4a60018461142a565b81518110610e5a57610e5a61143d565b602002602001018181525050600260008281526020019081526020016000206001018054610e8790611290565b80601f0160208091040260200160405190810160405280929190818152602001828054610eb390611290565b8015610f005780601f10610ed557610100808354040283529160200191610f00565b820191906000526020600020905b815481529060010190602001808311610ee357829003601f168201915b505050505083600183610f13919061142a565b81518110610f2357610f2361143d565b6020026020010181905250600260008281526020019081526020016000206003015482600183610f53919061142a565b81518110610f6357610f6361143d565b602090810291909101015280610f7881611236565b915050610e26565b5091959094509092509050565b600060208284031215610f9f57600080fd5b5035919050565b600060208284031215610fb857600080fd5b81356001600160a01b0381168114610fcf57600080fd5b9392505050565b634e487b7160e01b600052604160045260246000fd5b600082601f830112610ffd57600080fd5b813567ffffffffffffffff8082111561101857611018610fd6565b604051601f8301601f19908116603f0116810190828211818310171561104057611040610fd6565b8160405283815286602085880101111561105957600080fd5b836020870160208301376000602085830101528094505050505092915050565b6000806040838503121561108c57600080fd5b823567ffffffffffffffff808211156110a457600080fd5b6110b086838701610fec565b935060208501359150808211156110c657600080fd5b506110d385828601610fec565b9150509250929050565b6000815180845260005b81811015611103576020818501810151868301820152016110e7565b506000602082860101526020601f19601f83011685010191505092915050565b84815260806020820152600061113c60808301866110dd565b828103604084015261114e81866110dd565b91505082606083015295945050505050565b600081518084526020808501945080840160005b8381101561119057815187529582019590820190600101611174565b509495945050505050565b6060815260006111ae6060830186611160565b6020838203818501528186518084528284019150828160051b85010183890160005b838110156111fe57601f198784030185526111ec8383516110dd565b948601949250908501906001016111d0565b505086810360408801526112128189611160565b9a9950505050505050505050565b634e487b7160e01b600052601160045260246000fd5b60006001820161124857611248611220565b5060010190565b60208082526021908201527f4f6e6c792061646d696e2063616e2063616c6c20746869732066756e6374696f6040820152603760f91b606082015260800190565b600181811c908216806112a457607f821691505b6020821081036112c457634e487b7160e01b600052602260045260246000fd5b50919050565b601f82111561131457600081815260208120601f850160051c810160208610156112f15750805b601f850160051c820191505b81811015611310578281556001016112fd565b5050505b505050565b815167ffffffffffffffff81111561133357611333610fd6565b611347816113418454611290565b846112ca565b602080601f83116001811461137c57600084156113645750858301515b600019600386901b1c1916600185901b178555611310565b600085815260208120601f198616915b828110156113ab5788860151825594840194600190910190840161138c565b50858210156113c95787850151600019600388901b60f8161c191681555b5050505050600190811b01905550565b8281526040602082015260006113f260408301846110dd565b949350505050565b808202811582820484141761141157611411611220565b92915050565b8082018082111561141157611411611220565b8181038181111561141157611411611220565b634e487b7160e01b600052603260045260246000fdfea264697066735822122056457f9e842334ec70247214c071f262e08e2de96646bd6b324f598d522ea27d64736f6c63430008110033",
  "immutableReferences": {},
  "source": "// SPDX-License-Identifier: MIT \r\npragma solidity ^0.8.17;\r\n\r\n/**\r\n * @title EVotingSystem\r\n * @dev Smart contract for a decentralized voting system\r\n */\r\ncontract EVotingSystem {\r\n    // Structures\r\n    struct Candidate {\r\n        uint256 id;\r\n        string name;\r\n        string details;\r\n        uint256 voteCount;\r\n        bool exists;\r\n    }\r\n\r\n    struct Voter {\r\n        bool isRegistered;\r\n        bool hasVoted;\r\n        uint256 votedCandidateId;\r\n    }\r\n\r\n    // State variables\r\n    address public admin;\r\n    uint256 public candidatesCount;\r\n    mapping(uint256 => Candidate) private candidates;\r\n    mapping(address => Voter) public voters;\r\n    \r\n    bool public votingStarted;\r\n    bool public votingEnded;\r\n    uint256 public startTime;\r\n    uint256 public endTime;\r\n    \r\n    uint256 public totalVotes;\r\n\r\n    // Events\r\n    event CandidateAdded(uint256 candidateId, string name);\r\n    event VoterRegistered(address voterAddress);\r\n    event VoteCast(address voter, uint256 candidateId);\r\n    event VotingStarted(uint256 startTime, uint256 endTime);\r\n    event VotingEnded(uint256 endTime, uint256 totalVotes);\r\n\r\n    // Modifiers\r\n    modifier onlyAdmin() {\r\n        require(msg.sender == admin, \"Only admin can call this function\");\r\n        _;\r\n    }\r\n\r\n    modifier votingActive() {\r\n        require(votingStarted && !votingEnded, \"Voting is not active\");\r\n        _;\r\n    }\r\n\r\n    modifier votingNotStarted() {\r\n        require(!votingStarted, \"Voting has already started\");\r\n        _;\r\n    }\r\n\r\n    // Constructor\r\n    constructor() {\r\n        admin = msg.sender;\r\n        candidatesCount = 0;\r\n        votingStarted = false;\r\n        votingEnded = false;\r\n        totalVotes = 0;\r\n    }\r\n\r\n    /**\r\n     * @dev Add a new candidate to the election\r\n     * @param _name Name of the candidate\r\n     * @param _details Additional details about the candidate\r\n     */\r\n    function addCandidate(string memory _name, string memory _details) public onlyAdmin votingNotStarted {\r\n        candidatesCount++;\r\n        candidates[candidatesCount] = Candidate(candidatesCount, _name, _details, 0, true);\r\n        emit CandidateAdded(candidatesCount, _name);\r\n    }\r\n\r\n    /**\r\n     * @dev Register a voter\r\n     * @param _voter Address of the voter to register\r\n     */\r\n    function registerVoter(address _voter) public onlyAdmin {\r\n        require(!voters[_voter].isRegistered, \"Voter is already registered\");\r\n        voters[_voter] = Voter(true, false, 0);\r\n        emit VoterRegistered(_voter);\r\n    }\r\n\r\n    /**\r\n     * @dev Start the voting period\r\n     * @param _durationInMinutes Duration of the voting period in minutes\r\n     */\r\n    function startVoting(uint256 _durationInMinutes) public onlyAdmin votingNotStarted {\r\n        require(candidatesCount > 0, \"No candidates added yet\");\r\n        require(_durationInMinutes > 0, \"Duration must be greater than 0\");\r\n        \r\n        votingStarted = true;\r\n        startTime = block.timestamp;\r\n        endTime = startTime + (_durationInMinutes * 1 minutes);\r\n        \r\n        emit VotingStarted(startTime, endTime);\r\n    }\r\n\r\n    /**\r\n     * @dev End the voting period (can be called by admin before the scheduled end time)\r\n     */\r\n    function endVoting() public onlyAdmin votingActive {\r\n        votingEnded = true;\r\n        endTime = block.timestamp;\r\n        emit VotingEnded(endTime, totalVotes);\r\n    }\r\n\r\n    /**\r\n     * @dev Cast a vote for a candidate\r\n     * @param _candidateId ID of the candidate to vote for\r\n     */\r\n    function vote(uint256 _candidateId) public votingActive {\r\n        Voter storage sender = voters[msg.sender];\r\n        \r\n        require(sender.isRegistered, \"Voter is not registered\");\r\n        require(!sender.hasVoted, \"Voter has already voted\");\r\n        require(candidates[_candidateId].exists, \"Candidate does not exist\");\r\n        \r\n        sender.hasVoted = true;\r\n        sender.votedCandidateId = _candidateId;\r\n        \r\n        candidates[_candidateId].voteCount++;\r\n        totalVotes++;\r\n        \r\n        emit VoteCast(msg.sender, _candidateId);\r\n    }\r\n\r\n    /**\r\n    * @dev Get candidate information by ID\r\n    * @param _candidateId Candidate to retrieve info for\r\n    * @return id The unique identifier of the candidate\r\n    * @return name The name of the candidate\r\n    * @return details Additional information about the candidate\r\n    * @return voteCount The number of votes the candidate has received\r\n     */\r\n    function getCandidate(uint256 _candidateId) public view returns (\r\n        uint256 id, \r\n        string memory name, \r\n        string memory details, \r\n        uint256 voteCount\r\n    ) {\r\n        require(candidates[_candidateId].exists, \"Candidate does not exist\");\r\n        Candidate memory candidate = candidates[_candidateId];\r\n        return (\r\n            candidate.id,\r\n            candidate.name,\r\n            candidate.details,\r\n            candidate.voteCount\r\n        );\r\n    }\r\n\r\n    /**\r\n    * @dev Get all candidates with their vote counts\r\n    * @return ids Array of candidate IDs\r\n    * @return names Array of candidate names\r\n    * @return voteCounts Array of vote counts for each candidate\r\n    */\r\n    function getAllCandidatesWithVotes() public view returns (\r\n        uint256[] memory ids, \r\n        string[] memory names, \r\n        uint256[] memory voteCounts\r\n    ) {\r\n        uint256[] memory _ids = new uint256[](candidatesCount);\r\n        string[] memory _names = new string[](candidatesCount);\r\n        uint256[] memory _voteCounts = new uint256[](candidatesCount);\r\n        \r\n        for (uint256 i = 1; i <= candidatesCount; i++) {\r\n            _ids[i-1] = candidates[i].id;\r\n            _names[i-1] = candidates[i].name;\r\n            _voteCounts[i-1] = candidates[i].voteCount;\r\n        }\r\n        \r\n        return (_ids, _names, _voteCounts);\r\n    }\r\n\r\n    /**\r\n    * @dev Get voting status\r\n    * @return isActive Whether voting is currently active\r\n    * @return remainingTime Time remaining before voting ends (in seconds)\r\n    */\r\n    function getVotingStatus() public view returns (\r\n        bool isActive, \r\n        uint256 remainingTime\r\n    ) {\r\n        if (votingStarted && !votingEnded && block.timestamp < endTime) {\r\n            return (true, endTime - block.timestamp);\r\n        } else {\r\n            return (false, 0);\r\n        }\r\n    }\r\n\r\n    /**\r\n    * @dev Check if an address is registered and has voted\r\n    * @param _voter Address to check\r\n    * @return isRegistered Whether the address is registered\r\n    * @return hasVoted Whether the address has voted\r\n    */\r\n    function checkVoterStatus(address _voter) public view returns (\r\n        bool isRegistered,\r\n        bool hasVoted\r\n    ) {\r\n        Voter memory voter = voters[_voter];\r\n        return (voter.isRegistered, voter.hasVoted);\r\n    }\r\n\r\n    /**\r\n    * @dev Get voter's voted candidate if they have voted\r\n    * @param _voter Address to check\r\n    * @return votedFor The candidate ID they voted for\r\n    */\r\n    function getVoterVote(address _voter) public view returns (uint256 votedFor) {\r\n        require(voters[_voter].isRegistered, \"Voter is not registered\");\r\n        require(voters[_voter].hasVoted, \"Voter has not voted yet\");\r\n        return voters[_voter].votedCandidateId;\r\n    }\r\n}",
  "sourcePath": "C:\\Users\\USER\\Desktop\\Evoting-App\\contracts\\EVotingSystem.sol",
  "compiler": {
    "name": "solc",
    "version": "0.8.17+commit.8df45f5f.Emscripten.clang"
  },
  "schemaVersion": "3.4.16",
  "updatedAt": "2025-03-10T05:55:31.625Z",
  "networkType": "ethereum",
  "devdoc": {
    "details": "Smart contract for a decentralized voting system",
    "kind": "dev",
    "methods": {
      "addCandidate(string,string)": {
        "details": "Add a new candidate to the election",
        "params": {
          "_details": "Additional details about the candidate",
          "_name": "Name of the candidate"
        }
      },
      "checkVoterStatus(address)": {
        "details": "Check if an address is registered and has voted",
        "params": {
          "_voter": "Address to check"
        },
        "returns": {
          "hasVoted": "Whether the address has voted",
          "isRegistered": "Whether the address is registered"
        }
      },
      "endVoting()": {
        "details": "End the voting period (can be called by admin before the scheduled end time)"
      },
      "getAllCandidatesWithVotes()": {
        "details": "Get all candidates with their vote counts",
        "returns": {
          "ids": "Array of candidate IDs",
          "names": "Array of candidate names",
          "voteCounts": "Array of vote counts for each candidate"
        }
      },
      "getCandidate(uint256)": {
        "details": "Get candidate information by ID",
        "params": {
          "_candidateId": "Candidate to retrieve info for"
        },
        "returns": {
          "details": "Additional information about the candidate",
          "id": "The unique identifier of the candidate",
          "name": "The name of the candidate",
          "voteCount": "The number of votes the candidate has received"
        }
      },
      "getVoterVote(address)": {
        "details": "Get voter's voted candidate if they have voted",
        "params": {
          "_voter": "Address to check"
        },
        "returns": {
          "votedFor": "The candidate ID they voted for"
        }
      },
      "getVotingStatus()": {
        "details": "Get voting status",
        "returns": {
          "isActive": "Whether voting is currently active",
          "remainingTime": "Time remaining before voting ends (in seconds)"
        }
      },
      "registerVoter(address)": {
        "details": "Register a voter",
        "params": {
          "_voter": "Address of the voter to register"
        }
      },
      "startVoting(uint256)": {
        "details": "Start the voting period",
        "params": {
          "_durationInMinutes": "Duration of the voting period in minutes"
        }
      },
      "vote(uint256)": {
        "details": "Cast a vote for a candidate",
        "params": {
          "_candidateId": "ID of the candidate to vote for"
        }
      }
    },
    "title": "EVotingSystem",
    "version": 1
  },
  "userdoc": {
    "kind": "user",
    "methods": {},
    "version": 1
  }
}