{
  "contractName": "EVotingSystem",
  "abi": [
    {
      "inputs": [],
      "stateMutability": "nonpayable",
      "type": "constructor"
    },
    {
      "anonymous": false,
      "inputs": [
        {
          "indexed": false,
          "internalType": "uint256",
          "name": "candidateId",
          "type": "uint256"
        },
        {
          "indexed": false,
          "internalType": "string",
          "name": "name",
          "type": "string"
        }
      ],
      "name": "CandidateAdded",
      "type": "event"
    },
    {
      "anonymous": false,
      "inputs": [
        {
          "indexed": false,
          "internalType": "address",
          "name": "voter",
          "type": "address"
        },
        {
          "indexed": false,
          "internalType": "uint256",
          "name": "candidateId",
          "type": "uint256"
        }
      ],
      "name": "VoteCast",
      "type": "event"
    },
    {
      "anonymous": false,
      "inputs": [
        {
          "indexed": false,
          "internalType": "address",
          "name": "voterAddress",
          "type": "address"
        }
      ],
      "name": "VoterRegistered",
      "type": "event"
    },
    {
      "anonymous": false,
      "inputs": [
        {
          "indexed": false,
          "internalType": "uint256",
          "name": "endTime",
          "type": "uint256"
        },
        {
          "indexed": false,
          "internalType": "uint256",
          "name": "totalVotes",
          "type": "uint256"
        }
      ],
      "name": "VotingEnded",
      "type": "event"
    },
    {
      "anonymous": false,
      "inputs": [
        {
          "indexed": false,
          "internalType": "uint256",
          "name": "startTime",
          "type": "uint256"
        },
        {
          "indexed": false,
          "internalType": "uint256",
          "name": "endTime",
          "type": "uint256"
        }
      ],
      "name": "VotingStarted",
      "type": "event"
    },
    {
      "inputs": [],
      "name": "admin",
      "outputs": [
        {
          "internalType": "address",
          "name": "",
          "type": "address"
        }
      ],
      "stateMutability": "view",
      "type": "function",
      "constant": true
    },
    {
      "inputs": [],
      "name": "candidatesCount",
      "outputs": [
        {
          "internalType": "uint256",
          "name": "",
          "type": "uint256"
        }
      ],
      "stateMutability": "view",
      "type": "function",
      "constant": true
    },
    {
      "inputs": [],
      "name": "endTime",
      "outputs": [
        {
          "internalType": "uint256",
          "name": "",
          "type": "uint256"
        }
      ],
      "stateMutability": "view",
      "type": "function",
      "constant": true
    },
    {
      "inputs": [],
      "name": "startTime",
      "outputs": [
        {
          "internalType": "uint256",
          "name": "",
          "type": "uint256"
        }
      ],
      "stateMutability": "view",
      "type": "function",
      "constant": true
    },
    {
      "inputs": [],
      "name": "totalVotes",
      "outputs": [
        {
          "internalType": "uint256",
          "name": "",
          "type": "uint256"
        }
      ],
      "stateMutability": "view",
      "type": "function",
      "constant": true
    },
    {
      "inputs": [
        {
          "internalType": "address",
          "name": "",
          "type": "address"
        }
      ],
      "name": "voters",
      "outputs": [
        {
          "internalType": "bool",
          "name": "isRegistered",
          "type": "bool"
        },
        {
          "internalType": "bool",
          "name": "hasVoted",
          "type": "bool"
        },
        {
          "internalType": "uint256",
          "name": "votedCandidateId",
          "type": "uint256"
        }
      ],
      "stateMutability": "view",
      "type": "function",
      "constant": true
    },
    {
      "inputs": [],
      "name": "votingEnded",
      "outputs": [
        {
          "internalType": "bool",
          "name": "",
          "type": "bool"
        }
      ],
      "stateMutability": "view",
      "type": "function",
      "constant": true
    },
    {
      "inputs": [],
      "name": "votingStarted",
      "outputs": [
        {
          "internalType": "bool",
          "name": "",
          "type": "bool"
        }
      ],
      "stateMutability": "view",
      "type": "function",
      "constant": true
    },
    {
      "inputs": [
        {
          "internalType": "string",
          "name": "_name",
          "type": "string"
        },
        {
          "internalType": "string",
          "name": "_details",
          "type": "string"
        }
      ],
      "name": "addCandidate",
      "outputs": [],
      "stateMutability": "nonpayable",
      "type": "function"
    },
    {
      "inputs": [
        {
          "internalType": "address",
          "name": "_voter",
          "type": "address"
        }
      ],
      "name": "registerVoter",
      "outputs": [],
      "stateMutability": "nonpayable",
      "type": "function"
    },
    {
      "inputs": [
        {
          "internalType": "uint256",
          "name": "_durationInMinutes",
          "type": "uint256"
        }
      ],
      "name": "startVoting",
      "outputs": [],
      "stateMutability": "nonpayable",
      "type": "function"
    },
    {
      "inputs": [],
      "name": "endVoting",
      "outputs": [],
      "stateMutability": "nonpayable",
      "type": "function"
    },
    {
      "inputs": [
        {
          "internalType": "uint256",
          "name": "_candidateId",
          "type": "uint256"
        }
      ],
      "name": "vote",
      "outputs": [],
      "stateMutability": "nonpayable",
      "type": "function"
    },
    {
      "inputs": [
        {
          "internalType": "uint256",
          "name": "_candidateId",
          "type": "uint256"
        }
      ],
      "name": "getCandidate",
      "outputs": [
        {
          "internalType": "uint256",
          "name": "id",
          "type": "uint256"
        },
        {
          "internalType": "string",
          "name": "name",
          "type": "string"
        },
        {
          "internalType": "string",
          "name": "details",
          "type": "string"
        },
        {
          "internalType": "uint256",
          "name": "voteCount",
          "type": "uint256"
        }
      ],
      "stateMutability": "view",
      "type": "function",
      "constant": true
    },
    {
      "inputs": [],
      "name": "getAllCandidatesWithVotes",
      "outputs": [
        {
          "internalType": "uint256[]",
          "name": "ids",
          "type": "uint256[]"
        },
        {
          "internalType": "string[]",
          "name": "names",
          "type": "string[]"
        },
        {
          "internalType": "uint256[]",
          "name": "voteCounts",
          "type": "uint256[]"
        }
      ],
      "stateMutability": "view",
      "type": "function",
      "constant": true
    },
    {
      "inputs": [],
      "name": "getVotingStatus",
      "outputs": [
        {
          "internalType": "bool",
          "name": "isActive",
          "type": "bool"
        },
        {
          "internalType": "uint256",
          "name": "remainingTime",
          "type": "uint256"
        }
      ],
      "stateMutability": "view",
      "type": "function",
      "constant": true
    },
    {
      "inputs": [
        {
          "internalType": "address",
          "name": "_voter",
          "type": "address"
        }
      ],
      "name": "checkVoterStatus",
      "outputs": [
        {
          "internalType": "bool",
          "name": "hasVoted",
          "type": "bool"
        },
        {
          "internalType": "uint256",
          "name": "votedFor",
          "type": "uint256"
        }
      ],
      "stateMutability": "view",
      "type": "function",
      "constant": true
    }
  ],
  "bytecode": "0x608060405234801561001057600080fd5b50600080546001600160a01b0319163317815560018190556004805461ffff191690556007556113ae806100456000396000f3fe608060405234801561001057600080fd5b506004361061010b5760003560e01c80633d2f5bda116100a25780639d5a0529116100715780639d5a052914610207578063a3ec138d14610219578063c3403ddf1461026a578063f6d42f1514610272578063f851a4401461028957600080fd5b80633d2f5bda146101c6578063581c281c146101d957806378e97925146101e157806383d948b7146101ea57600080fd5b80632d35a8a2116100de5780632d35a8a21461017e5780633197cbb61461018757806335b8e8201461019057806338db6dd3146101b357600080fd5b80630121b93f146101105780630d15fd77146101255780630eaf4d9c1461014157806326541b561461016b575b600080fd5b61012361011e366004610eb2565b6102b4565b005b61012e60075481565b6040519081526020015b60405180910390f35b61015461014f366004610ecb565b6104ac565b604080519215158352602083019190915201610138565b610123610179366004610f9e565b61053d565b61012e60015481565b61012e60065481565b6101a361019e366004610eb2565b61068d565b6040516101389493929190611048565b6101236101c1366004610ecb565b61087c565b6101236101d4366004610eb2565b6109a6565b610154610b2c565b61012e60055481565b6004546101f79060ff1681565b6040519015158152602001610138565b6004546101f790610100900460ff1681565b61024d610227366004610ecb565b6003602052600090815260409020805460019091015460ff808316926101009004169083565b604080519315158452911515602084015290820152606001610138565b610123610b7e565b61027a610c5e565b604051610138939291906110c0565b60005461029c906001600160a01b031681565b6040516001600160a01b039091168152602001610138565b60045460ff1680156102ce5750600454610100900460ff16155b6103165760405162461bcd60e51b8152602060048201526014602482015273566f74696e67206973206e6f742061637469766560601b60448201526064015b60405180910390fd5b336000908152600360205260409020805460ff166103705760405162461bcd60e51b8152602060048201526017602482015276159bdd195c881a5cc81b9bdd081c9959da5cdd195c9959604a1b604482015260640161030d565b8054610100900460ff16156103c75760405162461bcd60e51b815260206004820152601760248201527f566f7465722068617320616c726561647920766f746564000000000000000000604482015260640161030d565b60008281526002602052604090206004015460ff166104235760405162461bcd60e51b815260206004820152601860248201527710d85b991a59185d1948191bd95cc81b9bdd08195e1a5cdd60421b604482015260640161030d565b805461ff0019166101001781556001810182905560008281526002602052604081206003018054916104548361115b565b9091555050600780549060006104698361115b565b909155505060408051338152602081018490527fa36cc2bebb74db33e9f88110a07ef56e1b31b24b4c4f51b54b1664266e29f45b91015b60405180910390a15050565b6001600160a01b038116600090815260036020526040812054819060ff166105105760405162461bcd60e51b8152602060048201526017602482015276159bdd195c881a5cc81b9bdd081c9959da5cdd195c9959604a1b604482015260640161030d565b50506001600160a01b03166000908152600360205260409020805460019091015461010090910460ff1691565b6000546001600160a01b031633146105675760405162461bcd60e51b815260040161030d90611174565b60045460ff16156105ba5760405162461bcd60e51b815260206004820152601a60248201527f566f74696e672068617320616c72656164792073746172746564000000000000604482015260640161030d565b600180549060006105ca8361115b565b90915550506040805160a08101825260018054808352602080840187815284860187905260006060860181905260808601859052928352600290915293902082518155925191929190820190610620908261123e565b5060408201516002820190610635908261123e565b50606082015160038201556080909101516004909101805460ff19169115159190911790556001546040517fe83b2a43e7e82d975c8a0a6d2f045153c869e111136a34d1889ab7b598e396a3916104a09185906112fe565b6000818152600260205260408120600401546060908190839060ff166106f05760405162461bcd60e51b815260206004820152601860248201527710d85b991a59185d1948191bd95cc81b9bdd08195e1a5cdd60421b604482015260640161030d565b6000600260008781526020019081526020016000206040518060a00160405290816000820154815260200160018201805461072a906111b5565b80601f0160208091040260200160405190810160405280929190818152602001828054610756906111b5565b80156107a35780601f10610778576101008083540402835291602001916107a3565b820191906000526020600020905b81548152906001019060200180831161078657829003601f168201915b505050505081526020016002820180546107bc906111b5565b80601f01602080910402602001604051908101604052809291908181526020018280546107e8906111b5565b80156108355780601f1061080a57610100808354040283529160200191610835565b820191906000526020600020905b81548152906001019060200180831161081857829003601f168201915b5050509183525050600382015460208083019190915260049092015460ff161515604091820152825191830151908301516060909301519199909850919650945092505050565b6000546001600160a01b031633146108a65760405162461bcd60e51b815260040161030d90611174565b6001600160a01b03811660009081526003602052604090205460ff161561090f5760405162461bcd60e51b815260206004820152601b60248201527f566f74657220697320616c726561647920726567697374657265640000000000604482015260640161030d565b604080516060810182526001808252600060208084018281528486018381526001600160a01b038816808552600384529387902095518654925161ffff1990931690151561ff001916176101009215159290920291909117855551939092019290925591519081527fb6be2187d059cc2a55fe29e0e503b566e1e0f8c8780096e185429350acffd3dd91015b60405180910390a150565b6000546001600160a01b031633146109d05760405162461bcd60e51b815260040161030d90611174565b60045460ff1615610a235760405162461bcd60e51b815260206004820152601a60248201527f566f74696e672068617320616c72656164792073746172746564000000000000604482015260640161030d565b600060015411610a755760405162461bcd60e51b815260206004820152601760248201527f4e6f2063616e6469646174657320616464656420796574000000000000000000604482015260640161030d565b60008111610ac55760405162461bcd60e51b815260206004820152601f60248201527f4475726174696f6e206d7573742062652067726561746572207468616e203000604482015260640161030d565b6004805460ff1916600117905542600555610ae181603c61131f565b600554610aee919061133c565b60068190556005546040517ff8c022056754dbacca05aff710dc315a2fa7699ae9309fda403cd1e55c11d40f9261099b928252602082015260400190565b600454600090819060ff168015610b4b5750600454610100900460ff16155b8015610b58575060065442105b15610b7557600142600654610b6d919061134f565b915091509091565b50600091829150565b6000546001600160a01b03163314610ba85760405162461bcd60e51b815260040161030d90611174565b60045460ff168015610bc25750600454610100900460ff16155b610c055760405162461bcd60e51b8152602060048201526014602482015273566f74696e67206973206e6f742061637469766560601b604482015260640161030d565b6004805461ff0019166101001790554260068190556007546040517f04e400203b6647e7ab88412380ee2430174c77bd98021012d3647eb3fa63f63f92610c5492908252602082015260400190565b60405180910390a1565b6060806060600060015467ffffffffffffffff811115610c8057610c80610efb565b604051908082528060200260200182016040528015610ca9578160200160208202803683370190505b509050600060015467ffffffffffffffff811115610cc957610cc9610efb565b604051908082528060200260200182016040528015610cfc57816020015b6060815260200190600190039081610ce75790505b509050600060015467ffffffffffffffff811115610d1c57610d1c610efb565b604051908082528060200260200182016040528015610d45578160200160208202803683370190505b50905060015b6001548111610ea55760008181526002602052604090205484610d6f60018461134f565b81518110610d7f57610d7f611362565b602002602001018181525050600260008281526020019081526020016000206001018054610dac906111b5565b80601f0160208091040260200160405190810160405280929190818152602001828054610dd8906111b5565b8015610e255780601f10610dfa57610100808354040283529160200191610e25565b820191906000526020600020905b815481529060010190602001808311610e0857829003601f168201915b505050505083600183610e38919061134f565b81518110610e4857610e48611362565b6020026020010181905250600260008281526020019081526020016000206003015482600183610e78919061134f565b81518110610e8857610e88611362565b602090810291909101015280610e9d8161115b565b915050610d4b565b5091959094509092509050565b600060208284031215610ec457600080fd5b5035919050565b600060208284031215610edd57600080fd5b81356001600160a01b0381168114610ef457600080fd5b9392505050565b634e487b7160e01b600052604160045260246000fd5b600082601f830112610f2257600080fd5b813567ffffffffffffffff80821115610f3d57610f3d610efb565b604051601f8301601f19908116603f01168101908282118183101715610f6557610f65610efb565b81604052838152866020858801011115610f7e57600080fd5b836020870160208301376000602085830101528094505050505092915050565b60008060408385031215610fb157600080fd5b823567ffffffffffffffff80821115610fc957600080fd5b610fd586838701610f11565b93506020850135915080821115610feb57600080fd5b50610ff885828601610f11565b9150509250929050565b6000815180845260005b818110156110285760208185018101518683018201520161100c565b506000602082860101526020601f19601f83011685010191505092915050565b8481526080602082015260006110616080830186611002565b82810360408401526110738186611002565b91505082606083015295945050505050565b600081518084526020808501945080840160005b838110156110b557815187529582019590820190600101611099565b509495945050505050565b6060815260006110d36060830186611085565b6020838203818501528186518084528284019150828160051b85010183890160005b8381101561112357601f19878403018552611111838351611002565b948601949250908501906001016110f5565b505086810360408801526111378189611085565b9a9950505050505050505050565b634e487b7160e01b600052601160045260246000fd5b60006001820161116d5761116d611145565b5060010190565b60208082526021908201527f4f6e6c792061646d696e2063616e2063616c6c20746869732066756e6374696f6040820152603760f91b606082015260800190565b600181811c908216806111c957607f821691505b6020821081036111e957634e487b7160e01b600052602260045260246000fd5b50919050565b601f82111561123957600081815260208120601f850160051c810160208610156112165750805b601f850160051c820191505b8181101561123557828155600101611222565b5050505b505050565b815167ffffffffffffffff81111561125857611258610efb565b61126c8161126684546111b5565b846111ef565b602080601f8311600181146112a157600084156112895750858301515b600019600386901b1c1916600185901b178555611235565b600085815260208120601f198616915b828110156112d0578886015182559484019460019091019084016112b1565b50858210156112ee5787850151600019600388901b60f8161c191681555b5050505050600190811b01905550565b8281526040602082015260006113176040830184611002565b949350505050565b808202811582820484141761133657611336611145565b92915050565b8082018082111561133657611336611145565b8181038181111561133657611336611145565b634e487b7160e01b600052603260045260246000fdfea2646970667358221220ba635a1d1bcf2008d50071fdb30a65c110b04cc7da4d2952234e9dfdbac0ded864736f6c63430008110033",
  "immutableReferences": {},
  "source": "// SPDX-License-Identifier: MIT \r\npragma solidity ^0.8.17;\r\n\r\n/**\r\n * @title EVotingSystem\r\n * @dev Smart contract for a decentralized voting system\r\n */\r\ncontract EVotingSystem {\r\n    // Structures\r\n    struct Candidate {\r\n        uint256 id;\r\n        string name;\r\n        string details;\r\n        uint256 voteCount;\r\n        bool exists;\r\n    }\r\n\r\n    struct Voter {\r\n        bool isRegistered;\r\n        bool hasVoted;\r\n        uint256 votedCandidateId;\r\n    }\r\n\r\n    // State variables\r\n    address public admin;\r\n    uint256 public candidatesCount;\r\n    mapping(uint256 => Candidate) private candidates;\r\n    mapping(address => Voter) public voters;\r\n    \r\n    bool public votingStarted;\r\n    bool public votingEnded;\r\n    uint256 public startTime;\r\n    uint256 public endTime;\r\n    \r\n    uint256 public totalVotes;\r\n\r\n    // Events\r\n    event CandidateAdded(uint256 candidateId, string name);\r\n    event VoterRegistered(address voterAddress);\r\n    event VoteCast(address voter, uint256 candidateId);\r\n    event VotingStarted(uint256 startTime, uint256 endTime);\r\n    event VotingEnded(uint256 endTime, uint256 totalVotes);\r\n\r\n    // Modifiers\r\n    modifier onlyAdmin() {\r\n        require(msg.sender == admin, \"Only admin can call this function\");\r\n        _;\r\n    }\r\n\r\n    modifier votingActive() {\r\n        require(votingStarted && !votingEnded, \"Voting is not active\");\r\n        _;\r\n    }\r\n\r\n    modifier votingNotStarted() {\r\n        require(!votingStarted, \"Voting has already started\");\r\n        _;\r\n    }\r\n\r\n    // Constructor\r\n    constructor() {\r\n        admin = msg.sender;\r\n        candidatesCount = 0;\r\n        votingStarted = false;\r\n        votingEnded = false;\r\n        totalVotes = 0;\r\n    }\r\n\r\n    /**\r\n     * @dev Add a new candidate to the election\r\n     * @param _name Name of the candidate\r\n     * @param _details Additional details about the candidate\r\n     */\r\n    function addCandidate(string memory _name, string memory _details) public onlyAdmin votingNotStarted {\r\n        candidatesCount++;\r\n        candidates[candidatesCount] = Candidate(candidatesCount, _name, _details, 0, true);\r\n        emit CandidateAdded(candidatesCount, _name);\r\n    }\r\n\r\n    /**\r\n     * @dev Register a voter\r\n     * @param _voter Address of the voter to register\r\n     */\r\n    function registerVoter(address _voter) public onlyAdmin {\r\n        require(!voters[_voter].isRegistered, \"Voter is already registered\");\r\n        voters[_voter] = Voter(true, false, 0);\r\n        emit VoterRegistered(_voter);\r\n    }\r\n\r\n    /**\r\n     * @dev Start the voting period\r\n     * @param _durationInMinutes Duration of the voting period in minutes\r\n     */\r\n    function startVoting(uint256 _durationInMinutes) public onlyAdmin votingNotStarted {\r\n        require(candidatesCount > 0, \"No candidates added yet\");\r\n        require(_durationInMinutes > 0, \"Duration must be greater than 0\");\r\n        \r\n        votingStarted = true;\r\n        startTime = block.timestamp;\r\n        endTime = startTime + (_durationInMinutes * 1 minutes);\r\n        \r\n        emit VotingStarted(startTime, endTime);\r\n    }\r\n\r\n    /**\r\n     * @dev End the voting period (can be called by admin before the scheduled end time)\r\n     */\r\n    function endVoting() public onlyAdmin votingActive {\r\n        votingEnded = true;\r\n        endTime = block.timestamp;\r\n        emit VotingEnded(endTime, totalVotes);\r\n    }\r\n\r\n    /**\r\n     * @dev Cast a vote for a candidate\r\n     * @param _candidateId ID of the candidate to vote for\r\n     */\r\n    function vote(uint256 _candidateId) public votingActive {\r\n        Voter storage sender = voters[msg.sender];\r\n        \r\n        require(sender.isRegistered, \"Voter is not registered\");\r\n        require(!sender.hasVoted, \"Voter has already voted\");\r\n        require(candidates[_candidateId].exists, \"Candidate does not exist\");\r\n        \r\n        sender.hasVoted = true;\r\n        sender.votedCandidateId = _candidateId;\r\n        \r\n        candidates[_candidateId].voteCount++;\r\n        totalVotes++;\r\n        \r\n        emit VoteCast(msg.sender, _candidateId);\r\n    }\r\n\r\n    /**\r\n    * @dev Get candidate information by ID\r\n    * @param _candidateId Candidate to retrieve info for\r\n    * @return id The unique identifier of the candidate\r\n    * @return name The name of the candidate\r\n    * @return details Additional information about the candidate\r\n    * @return voteCount The number of votes the candidate has received\r\n     */\r\n    function getCandidate(uint256 _candidateId) public view returns (\r\n        uint256 id, \r\n        string memory name, \r\n        string memory details, \r\n        uint256 voteCount\r\n    ) {\r\n        require(candidates[_candidateId].exists, \"Candidate does not exist\");\r\n        Candidate memory candidate = candidates[_candidateId];\r\n        return (\r\n            candidate.id,\r\n            candidate.name,\r\n            candidate.details,\r\n            candidate.voteCount\r\n        );\r\n    }\r\n\r\n    /**\r\n    * @dev Get all candidates with their vote counts\r\n    * @return ids Array of candidate IDs\r\n    * @return names Array of candidate names\r\n    * @return voteCounts Array of vote counts for each candidate\r\n    */\r\n    function getAllCandidatesWithVotes() public view returns (\r\n        uint256[] memory ids, \r\n        string[] memory names, \r\n        uint256[] memory voteCounts\r\n    ) {\r\n        uint256[] memory _ids = new uint256[](candidatesCount);\r\n        string[] memory _names = new string[](candidatesCount);\r\n        uint256[] memory _voteCounts = new uint256[](candidatesCount);\r\n        \r\n        for (uint256 i = 1; i <= candidatesCount; i++) {\r\n            _ids[i-1] = candidates[i].id;\r\n            _names[i-1] = candidates[i].name;\r\n            _voteCounts[i-1] = candidates[i].voteCount;\r\n        }\r\n        \r\n        return (_ids, _names, _voteCounts);\r\n    }\r\n\r\n    /**\r\n    * @dev Get voting status\r\n    * @return isActive Whether voting is currently active\r\n    * @return remainingTime Time remaining before voting ends (in seconds)\r\n    */\r\n    function getVotingStatus() public view returns (\r\n        bool isActive, \r\n        uint256 remainingTime\r\n    ) {\r\n        if (votingStarted && !votingEnded && block.timestamp < endTime) {\r\n            return (true, endTime - block.timestamp);\r\n        } else {\r\n            return (false, 0);\r\n        }\r\n    }\r\n\r\n    /**\r\n    * @dev Check if an address has voted\r\n    * @param _voter Address to check\r\n    * @return hasVoted Whether the address has voted\r\n    * @return votedFor The candidate ID they voted for (if they voted)\r\n    */\r\n    function checkVoterStatus(address _voter) public view returns (\r\n        bool hasVoted, \r\n        uint256 votedFor\r\n    ) {\r\n        require(voters[_voter].isRegistered, \"Voter is not registered\");\r\n        return (voters[_voter].hasVoted, voters[_voter].votedCandidateId);\r\n    }\r\n}",
  "sourcePath": "C:\\Users\\USER\\Desktop\\Evoting-App\\contracts\\EVotingSystem.sol",
  "compiler": {
    "name": "solc",
    "version": "0.8.17+commit.8df45f5f.Emscripten.clang"
  },
  "schemaVersion": "3.4.16",
  "updatedAt": "2025-03-09T05:40:21.477Z",
  "networkType": "ethereum",
  "devdoc": {
    "details": "Smart contract for a decentralized voting system",
    "kind": "dev",
    "methods": {
      "addCandidate(string,string)": {
        "details": "Add a new candidate to the election",
        "params": {
          "_details": "Additional details about the candidate",
          "_name": "Name of the candidate"
        }
      },
      "checkVoterStatus(address)": {
        "details": "Check if an address has voted",
        "params": {
          "_voter": "Address to check"
        },
        "returns": {
          "hasVoted": "Whether the address has voted",
          "votedFor": "The candidate ID they voted for (if they voted)"
        }
      },
      "endVoting()": {
        "details": "End the voting period (can be called by admin before the scheduled end time)"
      },
      "getAllCandidatesWithVotes()": {
        "details": "Get all candidates with their vote counts",
        "returns": {
          "ids": "Array of candidate IDs",
          "names": "Array of candidate names",
          "voteCounts": "Array of vote counts for each candidate"
        }
      },
      "getCandidate(uint256)": {
        "details": "Get candidate information by ID",
        "params": {
          "_candidateId": "Candidate to retrieve info for"
        },
        "returns": {
          "details": "Additional information about the candidate",
          "id": "The unique identifier of the candidate",
          "name": "The name of the candidate",
          "voteCount": "The number of votes the candidate has received"
        }
      },
      "getVotingStatus()": {
        "details": "Get voting status",
        "returns": {
          "isActive": "Whether voting is currently active",
          "remainingTime": "Time remaining before voting ends (in seconds)"
        }
      },
      "registerVoter(address)": {
        "details": "Register a voter",
        "params": {
          "_voter": "Address of the voter to register"
        }
      },
      "startVoting(uint256)": {
        "details": "Start the voting period",
        "params": {
          "_durationInMinutes": "Duration of the voting period in minutes"
        }
      },
      "vote(uint256)": {
        "details": "Cast a vote for a candidate",
        "params": {
          "_candidateId": "ID of the candidate to vote for"
        }
      }
    },
    "title": "EVotingSystem",
    "version": 1
  },
  "userdoc": {
    "kind": "user",
    "methods": {},
    "version": 1
  }
}