{
  "contractName": "SimpleTest",
  "abi": [
    {
      "inputs": [],
      "stateMutability": "nonpayable",
      "type": "constructor"
    },
    {
      "inputs": [],
      "name": "message",
      "outputs": [
        {
          "internalType": "string",
          "name": "",
          "type": "string"
        }
      ],
      "stateMutability": "view",
      "type": "function",
      "constant": true
    },
    {
      "inputs": [],
      "name": "owner",
      "outputs": [
        {
          "internalType": "address",
          "name": "",
          "type": "address"
        }
      ],
      "stateMutability": "view",
      "type": "function",
      "constant": true
    },
    {
      "inputs": [
        {
          "internalType": "string",
          "name": "_newMessage",
          "type": "string"
        }
      ],
      "name": "setMessage",
      "outputs": [],
      "stateMutability": "nonpayable",
      "type": "function"
    },
    {
      "inputs": [],
      "name": "getMessage",
      "outputs": [
        {
          "internalType": "string",
          "name": "",
          "type": "string"
        }
      ],
      "stateMutability": "view",
      "type": "function",
      "constant": true
    }
  ],
  "bytecode": "0x608060405234801561001057600080fd5b5060408051808201909152600d81526c48656c6c6f2c20576f726c642160981b602082015260009061004290826100f9565b50600180546001600160a01b031916331790556101b8565b634e487b7160e01b600052604160045260246000fd5b600181811c9082168061008457607f821691505b6020821081036100a457634e487b7160e01b600052602260045260246000fd5b50919050565b601f8211156100f457600081815260208120601f850160051c810160208610156100d15750805b601f850160051c820191505b818110156100f0578281556001016100dd565b5050505b505050565b81516001600160401b038111156101125761011261005a565b610126816101208454610070565b846100aa565b602080601f83116001811461015b57600084156101435750858301515b600019600386901b1c1916600185901b1785556100f0565b600085815260208120601f198616915b8281101561018a5788860151825594840194600190910190840161016b565b50858210156101a85787850151600019600388901b60f8161c191681555b5050505050600190811b01905550565b6104df806101c76000396000f3fe608060405234801561001057600080fd5b506004361061004c5760003560e01c8063368b8772146100515780638da5cb5b14610066578063ce6d41de14610096578063e21f37ce146100ab575b600080fd5b61006461005f366004610261565b6100b3565b005b600154610079906001600160a01b031681565b6040516001600160a01b0390911681526020015b60405180910390f35b61009e61012b565b60405161008d9190610312565b61009e6101bd565b6001546001600160a01b0316331461011b5760405162461bcd60e51b815260206004820152602160248201527f4f6e6c79206f776e65722063616e206368616e676520746865206d65737361676044820152606560f81b606482015260840160405180910390fd5b600061012782826103e9565b5050565b60606000805461013a90610360565b80601f016020809104026020016040519081016040528092919081815260200182805461016690610360565b80156101b35780601f10610188576101008083540402835291602001916101b3565b820191906000526020600020905b81548152906001019060200180831161019657829003601f168201915b5050505050905090565b600080546101ca90610360565b80601f01602080910402602001604051908101604052809291908181526020018280546101f690610360565b80156102435780601f1061021857610100808354040283529160200191610243565b820191906000526020600020905b81548152906001019060200180831161022657829003601f168201915b505050505081565b634e487b7160e01b600052604160045260246000fd5b60006020828403121561027357600080fd5b813567ffffffffffffffff8082111561028b57600080fd5b818401915084601f83011261029f57600080fd5b8135818111156102b1576102b161024b565b604051601f8201601f19908116603f011681019083821181831017156102d9576102d961024b565b816040528281528760208487010111156102f257600080fd5b826020860160208301376000928101602001929092525095945050505050565b600060208083528351808285015260005b8181101561033f57858101830151858201604001528201610323565b506000604082860101526040601f19601f8301168501019250505092915050565b600181811c9082168061037457607f821691505b60208210810361039457634e487b7160e01b600052602260045260246000fd5b50919050565b601f8211156103e457600081815260208120601f850160051c810160208610156103c15750805b601f850160051c820191505b818110156103e0578281556001016103cd565b5050505b505050565b815167ffffffffffffffff8111156104035761040361024b565b610417816104118454610360565b8461039a565b602080601f83116001811461044c57600084156104345750858301515b600019600386901b1c1916600185901b1785556103e0565b600085815260208120601f198616915b8281101561047b5788860151825594840194600190910190840161045c565b50858210156104995787850151600019600388901b60f8161c191681555b5050505050600190811b0190555056fea2646970667358221220a73ef521696be195de94839f9dea0ee7ac7f4ed7bd0edfd95909dd0948f8f54e64736f6c63430008110033",
  "immutableReferences": {},
  "source": "// SPDX-License-Identifier: MIT\r\npragma solidity ^0.8.17;\r\n\r\ncontract SimpleTest {\r\n    string public message;\r\n    address public owner;\r\n    \r\n    constructor() {\r\n        message = \"Hello, World!\";\r\n        owner = msg.sender;\r\n    }\r\n    \r\n    function setMessage(string memory _newMessage) public {\r\n        require(msg.sender == owner, \"Only owner can change the message\");\r\n        message = _newMessage;\r\n    }\r\n    \r\n    function getMessage() public view returns (string memory) {\r\n        return message;\r\n    }\r\n}",
  "sourcePath": "C:\\Users\\USER\\Desktop\\Evoting-App\\contracts\\SimpleContract.sol",
  "compiler": {
    "name": "solc",
    "version": "0.8.17+commit.8df45f5f.Emscripten.clang"
  },
  "schemaVersion": "3.4.16",
  "updatedAt": "2025-03-09T05:38:28.996Z",
  "networkType": "ethereum",
  "devdoc": {
    "kind": "dev",
    "methods": {},
    "version": 1
  },
  "userdoc": {
    "kind": "user",
    "methods": {},
    "version": 1
  }
}